:020000020000FC
:1000000000C00FEF0DBF08E00EBF40792430191279
:100010000278001008034621060E1124002733271A
:10002000772788279927AA27BB271CEF1AB91FE330
:1000300014B95E9A5F9A289A299A2A9A2B9A2C9A2E
:1000400038983998409A419A10E014BD15E015BDD2
:100050002D9867D00E94710024D0332331F40027FB
:100060008827AA27BB275DD0F5CF6623C9F0AA232E
:1000700079F0B395BA30A0F0BB27AA27002751D05A
:1000800011E09127992311F02D9A0AC02D9808C0EC
:1000900083958A3028F0882703950F7042D018D0B6
:1000A000D9CF6627772339F446E015EE16BD11E067
:1000B00015BB71E0089525B320FF089511E015BB2D
:1000C000112716BD4A9519F4772761E00895089520
:1000D000102F1F70232F121719F4A1E0BB270895CA
:1000E0000895309B03C0319B0EC008954AD0309BC9
:1000F00001C008953395303108F033271BD0309B71
:10010000FECF3FD008953DD0319B01C008953323E9
:1001100011F43FE001C03A950DD0319BFECF31D0B4
:100120000895102F1F70110F110F2BB1237C212B5D
:100130002BB908951F932F935F936F93132FF0E0C4
:10014000EAE0112319F031961A95FBCF54915F77AD
:100150002BB12F73652F6370660F660F660F660FE6
:10016000660F660F262B2BB925B1207E652F66956D
:1001700066956F71262B25B96F915F912F911F9115
:1001800008954F935F936F9342E052E36FEF6A9548
:10019000F1F75A95D9F74A95C1F76F915F914F9151
:0201A0000895C0
:00000001FF
